S01100005265676973746572732E737265635B
S11300000C942A000C943C000C943C000C943C008E
S11300100C943C000C943C000C943C000C943C006C
S11300200C943C000C943C000C943C000C943C005C
S11300300C943C000C943C000C943C000C943C004C
S11300400C943C000C943C000C943C000C943C003C
S11300500C943C0011241FBECFE5D8E0DEBFCDBF19
S113006020E0A0E6B0E001C01D92A836B207E1F797
S11300700E943E000C94AD000C94000080E884BF04
S113008084BF1ABA17BA8FEF84BB8CEF81BB59B304
S1130090A6B342E0242F30E080B3837090E02817A9
S11300A0390731F486B3A81303C089B3581791F301
S11300B080B3482F437059B381FD08C011C0E82FA5
S11300C0F0E0E05AFF4F10828F5F01C080E088307B
S11300D0B0F387E893E10197F1F700C00000DACFAD
S11300E0252F22952F70277030E0F901E05AFF4F39
S11300F0E08190E1E99FF0011124652F677070E0C1
S1130100DB01A05ABF4F9C91E92BE5BBEFE4F3EC74
S11301103197F1F700C00000A6B380FF0FC0EA2FAB
S1130120E770F0E0E05AFF4F8A2F82958F7080834A
S113013087E893E10197F1F700C00000F901E05A64
S1130140FF4F8081E0E18E9FC0011124FB01E05A42
S1110150FF4F9081892B85BB9DCFF894FFCF84
S9030000FC
