S01100007265676973746572322E737265637C
S11300000C942A000C943C000C943C000C943C008E
S11300100C943C000C943C000C943C000C943C006C
S11300200C943C000C943C000C943C000C943C005C
S11300300C943C000C943C000C943C000C943C004C
S11300400C943C000C943C000C943C000C943C003C
S11300500C943C0011241FBECFE5D8E0DEBFCDBF19
S113006020E0A0E6B0E001C01D92A836B207E1F797
S11300700E943E000C9481000C94000080E884BF30
S113008084BF1ABA17BA8FEF84BB80EF81BB80E0BC
S113009001C0892FE9B326B390B3892782FFF9CF32
S11300A092FFF7CF90FFF5CFAE2FA295AF70A77058
S11300B0B0E0A05ABF4F4C9180E1489FA0011124A9
S11300C0E770F0E0E05AFF4F8081482B45BBC7EA58
S11300D0D1E62197F1F700C00000C22FC770D0E02D
S11300E0C05ADF4F822F82958F708883207F22BB76
S11300F02C91D0E12D9F900111248081282B25BBC8
S1090100C8CFF894FFCF04
S9030000FC
