:100000000C942A000C943C000C943C000C943C0092
:100010000C943C000C943C000C943C000C943C0070
:100020000C943C000C943C000C943C000C943C0060
:100030000C943C000C943C000C943C000C943C0050
:100040000C943C000C943C000C943C000C943C0040
:100050000C943C0011241FBECFE5D8E0DEBFCDBF1D
:1000600020E0A0E6B0E001C01D92A836B207E1F79B
:100070000E943E000C94A9000C94000080E884BF0C
:1000800084BF1ABA17BA8FEF81BB8CEF84BBA9B3B8
:1000900066B392E083B3981306C086B3681303C0B7
:1000A00089B3A817B9F393B3A9B391FD08C011C0E0
:1000B000E82FF0E0E05AFF4F10828F5F01C080E030
:1000C0008830B0F3E7E8F3E13197F1F700C00000C2
:1000D000E1CF2A2F22952F70277030E0F901E05AE6
:1000E000FF4F6081F0E16F9FB00111244A2F4770EC
:1000F00050E0FA01E05AFF4F8081682B62BBEFE4C9
:10010000F3EC3197F1F700C0000066B390FF12C026
:10011000E62FE770F0E0E05AFF4F862F82958F7050
:100120008083862F8C7F85BBE7E8F3E13197F1F779
:1001300000C00000F901E05AFF4F2081F0E12F9F3D
:1001400090011124FA01E05AFF4F8081282B22BB35
:06015000A1CFF894FFCFDF
:00000001FF
