S014000052656769737465725F6E65772E7372656322
S11300000C942A000C943C000C943C000C943C008E
S11300100C943C000C943C000C943C000C943C006C
S11300200C943C000C943C000C943C000C943C005C
S11300300C943C000C943C000C943C000C943C004C
S11300400C943C000C943C000C943C000C943C003C
S11300500C943C0011241FBECFE5D8E0DEBFCDBF19
S113006020E0A0E6B0E001C01D92A037B207E1F79E
S11300700E944A000C948B000C94000080E090E0F5
S113008005C0FC01E05AFF4F1082019680319105B2
S1130090C4F3089580E884BF84BF80EF8ABB17BA95
S11300A08FEF84BB0E943E0020E090E002C09C2FB2
S11300B02D2F89B3C82FCF70D6B382FF09C00E94F9
S11300C03E0087EA91E60197F1F700C00000EFCF08
S11300D09C2793FFECCF83FFEACF4D2F4F7050E066
S11300E0FA01E05AFF4F908195BBE7EAF1E63197B8
S11300F0F1F700C0000080FF08C0E22FEF70F0E0CD
S1130100E05AFF4F22952F702083FA01E05AFF4FE7
S10D0110808185BBCCCFF894FFCFAB
S9030000FC
