S00A000050432E7372656387
S11300000C942A000C943F000C943F000C943F0085
S11300100C943F000C943F000C943F000C943F0060
S11300200C943F000C943F000C943F000C943F0050
S11300300C943F000C943F000C943F000C943F0040
S11300400C943F000C943F000C943F000C943F0030
S11300500C943F0011241FBECFE5D8E0DEBFCDBF16
S113006010E0A0E6B0E0E6ECF0E002C005900D92EE
S1130070A236B107D9F70E9441000C9461000C9498
S1130080000080E884BF84BF14BA8FEF87BB8ABBAB
S113009011BA15BA93B3891741F0209160003091D9
S11300A061002130310509F483B388BB8BBB2FE396
S11300B03DE093E0215030409040E1F700C0000063
S10900C0E9CFF894FFCF24
S10500C6010033
S9030000FC
