:100000000C942A000C943F000C943F000C943F0089
:100010000C943F000C943F000C943F000C943F0064
:100020000C943F000C943F000C943F000C943F0054
:100030000C943F000C943F000C943F000C943F0044
:100040000C943F000C943F000C943F000C943F0034
:100050000C943F0011241FBECFE5D8E0DEBFCDBF1A
:1000600012E0A0E6B0E0ECEAF0E002C005900D92EC
:10007000A036B107D9F70E9441000C9454000C94AB
:10008000000080E884BF84BF1ABA8FEF8BBB87BBA8
:1000900084BBE9B3F0E0EE0FFF1FE05AFF4F908101
:0C00A000818198BB85BBF5CFF894FFCFA1
:1000AC006F3023303E50316234C235D1239335D179
:1000BC002393311341A3C021410434F3615620969C
:1000CC0061563096B0213181317530F6613652B3BC
:1000DC0020F66136C02138E100000000000000006D
:1000EC000000000000000000000000000000000004
:1000FC0000000000000000000000000000000000F4
:10010C0000000000000000000000000000000000E3
:10011C0000000000000000000000000000000000D3
:10012C0000000000000000000000000000000000C3
:10013C0000000000000000000000000000000000B3
:10014C0000000000000000000000000000000000A3
:10015C000000000000000000000000000000000093
:10016C000000000000000000000000000000000083
:10017C000000000000000000000000000000000073
:10018C000000000000000000000000000000000063
:10019C000000000000000000000000000000000053
:1001AC000000000000000000000000000000000043
:1001BC000000000000000000000000000000000033
:1001CC000000000000000000000000000000000023
:1001DC000000000000000000000000000000000013
:1001EC000000000000000000000000000000000003
:1001FC0000000000000000000000000000000000F3
:10020C0000000000000000000000000000000000E2
:10021C0000000000000000000000000000000000D2
:10022C0000000000000000000000000000000000C2
:10023C0000000000000000000000000000000000B2
:10024C0000000000000000000000000000000000A2
:10025C000000000000000000000000000000000092
:10026C000000000000000000000000000000000082
:10027C000000000000000000000000000000000072
:10028C000000000000000000000000000000000062
:10029C000000000000000000000000000000000052
:00000001FF
