:100000000C942A000C943C000C943C000C943C0092
:100010000C943C000C943C000C943C000C943C0070
:100020000C943C000C943C000C943C000C943C0060
:100030000C943C000C943C000C943C000C943C0050
:100040000C943C000C943C000C943C000C943C0040
:100050000C943C0011241FBECFE5D8E0DEBFCDBF1D
:1000600020E0A0E6B0E001C01D92A037B207E1F7A2
:100070000E944A000C948B000C94000080E090E0F9
:1000800005C0FC01E05AFF4F1082019680319105B6
:10009000C4F3089580E884BF84BF88EF8ABB17BA91
:1000A0008FEF84BB0E943E00D0E0C0E02C2F30E0F8
:1000B00089B3877090E02817390719F486B3D817E9
:1000C000A9F389B3C82FC770D6B382FF09C00E94B5
:1000D0003E0083ED90E30197F1F700C00000E6CF0A
:1000E00080FF0FC0ED2FEF70F0E0E05AFF4F9D2F23
:1000F00092959F709083E3EDF0E33197F1F700C0A4
:10010000000081FFD3CFED2FEF70F0E0E05AFF4FFA
:0A011000808185BBCBCFF894FFCFB0
:00000001FF
