:100000000C942A000C943C000C943C000C943C0092
:100010000C943C000C943C000C943C000C943C0070
:100020000C943C000C943C000C943C000C943C0060
:100030000C943C000C943C000C943C000C943C0050
:100040000C943C000C943C000C943C000C943C0040
:100050000C943C0011241FBECFE5D8E0DEBFCDBF1D
:1000600020E0A0E6B0E001C01D92A037B207E1F7A2
:100070000E944A000C9465000C94000080E090E01F
:1000800005C0FC01E05AFF4F1082019680319105B6
:10009000C4F3089580E884BF84BF88EF8ABB17BA91
:1000A0008FEF84BB0E943E0050E040E0242F30E000
:1000B00089B3887F90E02817390719F486B3581759
:0E00C000A9F349B3487F56B3F1CFF894FFCFB0
:00000001FF
